{
  "address": "0x2887d976a08857953a7EA53461F80A6e7A6F7a11",
  "abi": [
    {
      "inputs": [
        {
          "internalType": "uint256",
          "name": "_submissionInterval",
          "type": "uint256"
        },
        {
          "internalType": "uint256",
          "name": "_l2BlockTime",
          "type": "uint256"
        },
        {
          "internalType": "uint256",
          "name": "_startingBlockNumber",
          "type": "uint256"
        },
        {
          "internalType": "uint256",
          "name": "_startingTimestamp",
          "type": "uint256"
        },
        {
          "internalType": "address",
          "name": "_proposer",
          "type": "address"
        },
        {
          "internalType": "address",
          "name": "_challenger",
          "type": "address"
        },
        {
          "internalType": "uint256",
          "name": "_finalizationPeriodSeconds",
          "type": "uint256"
        }
      ],
      "stateMutability": "nonpayable",
      "type": "constructor"
    },
    {
      "anonymous": false,
      "inputs": [
        {
          "indexed": false,
          "internalType": "uint8",
          "name": "version",
          "type": "uint8"
        }
      ],
      "name": "Initialized",
      "type": "event"
    },
    {
      "anonymous": false,
      "inputs": [
        {
          "indexed": true,
          "internalType": "bytes32",
          "name": "outputRoot",
          "type": "bytes32"
        },
        {
          "indexed": true,
          "internalType": "uint256",
          "name": "l2OutputIndex",
          "type": "uint256"
        },
        {
          "indexed": true,
          "internalType": "uint256",
          "name": "l2BlockNumber",
          "type": "uint256"
        },
        {
          "indexed": false,
          "internalType": "uint256",
          "name": "l1Timestamp",
          "type": "uint256"
        }
      ],
      "name": "OutputProposed",
      "type": "event"
    },
    {
      "anonymous": false,
      "inputs": [
        {
          "indexed": true,
          "internalType": "uint256",
          "name": "prevNextOutputIndex",
          "type": "uint256"
        },
        {
          "indexed": true,
          "internalType": "uint256",
          "name": "newNextOutputIndex",
          "type": "uint256"
        }
      ],
      "name": "OutputsDeleted",
      "type": "event"
    },
    {
      "inputs": [],
      "name": "CHALLENGER",
      "outputs": [
        {
          "internalType": "address",
          "name": "",
          "type": "address"
        }
      ],
      "stateMutability": "view",
      "type": "function"
    },
    {
      "inputs": [],
      "name": "FINALIZATION_PERIOD_SECONDS",
      "outputs": [
        {
          "internalType": "uint256",
          "name": "",
          "type": "uint256"
        }
      ],
      "stateMutability": "view",
      "type": "function"
    },
    {
      "inputs": [],
      "name": "L2_BLOCK_TIME",
      "outputs": [
        {
          "internalType": "uint256",
          "name": "",
          "type": "uint256"
        }
      ],
      "stateMutability": "view",
      "type": "function"
    },
    {
      "inputs": [],
      "name": "PROPOSER",
      "outputs": [
        {
          "internalType": "address",
          "name": "",
          "type": "address"
        }
      ],
      "stateMutability": "view",
      "type": "function"
    },
    {
      "inputs": [],
      "name": "SUBMISSION_INTERVAL",
      "outputs": [
        {
          "internalType": "uint256",
          "name": "",
          "type": "uint256"
        }
      ],
      "stateMutability": "view",
      "type": "function"
    },
    {
      "inputs": [
        {
          "internalType": "address",
          "name": "_proposer",
          "type": "address"
        }
      ],
      "name": "changeTheProposer",
      "outputs": [
        {
          "internalType": "address",
          "name": "",
          "type": "address"
        }
      ],
      "stateMutability": "nonpayable",
      "type": "function"
    },
    {
      "inputs": [
        {
          "internalType": "uint256",
          "name": "_l2BlockNumber",
          "type": "uint256"
        }
      ],
      "name": "computeL2Timestamp",
      "outputs": [
        {
          "internalType": "uint256",
          "name": "",
          "type": "uint256"
        }
      ],
      "stateMutability": "view",
      "type": "function"
    },
    {
      "inputs": [
        {
          "internalType": "uint256",
          "name": "_l2OutputIndex",
          "type": "uint256"
        }
      ],
      "name": "deleteL2Outputs",
      "outputs": [],
      "stateMutability": "nonpayable",
      "type": "function"
    },
    {
      "inputs": [
        {
          "internalType": "uint256",
          "name": "_l2OutputIndex",
          "type": "uint256"
        }
      ],
      "name": "getL2Output",
      "outputs": [
        {
          "components": [
            {
              "internalType": "bytes32",
              "name": "outputRoot",
              "type": "bytes32"
            },
            {
              "internalType": "uint128",
              "name": "timestamp",
              "type": "uint128"
            },
            {
              "internalType": "uint128",
              "name": "l2BlockNumber",
              "type": "uint128"
            }
          ],
          "internalType": "struct Types.OutputProposal",
          "name": "",
          "type": "tuple"
        }
      ],
      "stateMutability": "view",
      "type": "function"
    },
    {
      "inputs": [
        {
          "internalType": "uint256",
          "name": "_l2BlockNumber",
          "type": "uint256"
        }
      ],
      "name": "getL2OutputAfter",
      "outputs": [
        {
          "components": [
            {
              "internalType": "bytes32",
              "name": "outputRoot",
              "type": "bytes32"
            },
            {
              "internalType": "uint128",
              "name": "timestamp",
              "type": "uint128"
            },
            {
              "internalType": "uint128",
              "name": "l2BlockNumber",
              "type": "uint128"
            }
          ],
          "internalType": "struct Types.OutputProposal",
          "name": "",
          "type": "tuple"
        }
      ],
      "stateMutability": "view",
      "type": "function"
    },
    {
      "inputs": [
        {
          "internalType": "uint256",
          "name": "_l2BlockNumber",
          "type": "uint256"
        }
      ],
      "name": "getL2OutputIndexAfter",
      "outputs": [
        {
          "internalType": "uint256",
          "name": "",
          "type": "uint256"
        }
      ],
      "stateMutability": "view",
      "type": "function"
    },
    {
      "inputs": [
        {
          "internalType": "uint256",
          "name": "_startingBlockNumber",
          "type": "uint256"
        },
        {
          "internalType": "uint256",
          "name": "_startingTimestamp",
          "type": "uint256"
        }
      ],
      "name": "initialize",
      "outputs": [],
      "stateMutability": "nonpayable",
      "type": "function"
    },
    {
      "inputs": [],
      "name": "latestBlockNumber",
      "outputs": [
        {
          "internalType": "uint256",
          "name": "",
          "type": "uint256"
        }
      ],
      "stateMutability": "view",
      "type": "function"
    },
    {
      "inputs": [],
      "name": "latestOutputIndex",
      "outputs": [
        {
          "internalType": "uint256",
          "name": "",
          "type": "uint256"
        }
      ],
      "stateMutability": "view",
      "type": "function"
    },
    {
      "inputs": [],
      "name": "letsGetDaProposer",
      "outputs": [
        {
          "internalType": "address",
          "name": "",
          "type": "address"
        }
      ],
      "stateMutability": "view",
      "type": "function"
    },
    {
      "inputs": [],
      "name": "nextBlockNumber",
      "outputs": [
        {
          "internalType": "uint256",
          "name": "",
          "type": "uint256"
        }
      ],
      "stateMutability": "view",
      "type": "function"
    },
    {
      "inputs": [],
      "name": "nextOutputIndex",
      "outputs": [
        {
          "internalType": "uint256",
          "name": "",
          "type": "uint256"
        }
      ],
      "stateMutability": "view",
      "type": "function"
    },
    {
      "inputs": [
        {
          "internalType": "bytes32",
          "name": "_outputRoot",
          "type": "bytes32"
        },
        {
          "internalType": "uint256",
          "name": "_l2BlockNumber",
          "type": "uint256"
        },
        {
          "internalType": "bytes32",
          "name": "_l1BlockHash",
          "type": "bytes32"
        },
        {
          "internalType": "uint256",
          "name": "_l1BlockNumber",
          "type": "uint256"
        }
      ],
      "name": "proposeL2Output",
      "outputs": [],
      "stateMutability": "payable",
      "type": "function"
    },
    {
      "inputs": [],
      "name": "startingBlockNumber",
      "outputs": [
        {
          "internalType": "uint256",
          "name": "",
          "type": "uint256"
        }
      ],
      "stateMutability": "view",
      "type": "function"
    },
    {
      "inputs": [],
      "name": "startingTimestamp",
      "outputs": [
        {
          "internalType": "uint256",
          "name": "",
          "type": "uint256"
        }
      ],
      "stateMutability": "view",
      "type": "function"
    },
    {
      "inputs": [],
      "name": "version",
      "outputs": [
        {
          "internalType": "string",
          "name": "",
          "type": "string"
        }
      ],
      "stateMutability": "view",
      "type": "function"
    }
  ],
  "transactionHash": "0x97b2a17956ea847fac53edf28de158606f3a4942605af8186d8363e1b318b85d",
  "args": [
    120,
    2,
    0,
    0,
    "0xf8e84b890512c4cbba03310790bddf28a1c70663",
    "0xf13854997736e19389a6fb0f2ff5fc15e4d5fa56",
    12
  ],
  "numDeployments": 1,
  "solcInputHash": "a0a9ea486cc5a399eefb3913026f6311",
  "bytecode": "0x6101606040523480156200001257600080fd5b5060405162001c0038038062001c0083398101604081905262000035916200037e565b6001608052600260a052600060c05285620000bd5760405162461bcd60e51b815260206004820152603460248201527f4c324f75747075744f7261636c653a204c3220626c6f636b2074696d65206d7560448201527f73742062652067726561746572207468616e203000000000000000000000000060648201526084015b60405180910390fd5b858711620001435760405162461bcd60e51b815260206004820152604660248201527f4c324f75747075744f7261636c653a207375626d697373696f6e20696e74657260448201527f76616c206d7573742062652067726561746572207468616e204c3220626c6f636064820152656b2074696d6560d01b608482015260a401620000b4565b60e0879052610100869052600080546001600160a01b03808616620100000262010000600160b01b0319909216919091179091558216610120526101408190526200018f85856200019c565b50505050505050620003e6565b600054610100900460ff1615808015620001bd5750600054600160ff909116105b80620001ed5750620001da306200035260201b620013141760201c565b158015620001ed575060005460ff166001145b620002525760405162461bcd60e51b815260206004820152602e60248201527f496e697469616c697a61626c653a20636f6e747261637420697320616c72656160448201526d191e481a5b9a5d1a585b1a5e995960921b6064820152608401620000b4565b6000805460ff19166001179055801562000276576000805461ff0019166101001790555b42821115620002fc5760405162461bcd60e51b8152602060048201526044602482018190527f4c324f75747075744f7261636c653a207374617274696e67204c322074696d65908201527f7374616d70206d757374206265206c657373207468616e2063757272656e742060648201526374696d6560e01b608482015260a401620000b4565b6002829055600183905580156200034d576000805461ff0019169055604051600181527f7f26b83ff96e1f2b6a682f133852f6798a09c465da95921460cefb38474024989060200160405180910390a15b505050565b6001600160a01b03163b151590565b80516001600160a01b03811681146200037957600080fd5b919050565b600080600080600080600060e0888a0312156200039a57600080fd5b87519650602088015195506040880151945060608801519350620003c16080890162000361565b9250620003d160a0890162000361565b915060c0880151905092959891949750929550565b60805160a05160c05160e0516101005161012051610140516117a36200045d600039600081816104d801526109b901526000818161031f0152610853015260008181610180015261104801526000818161029f0152611096015260006105c60152600061059d0152600061057401526117a36000f3fe6080604052600436106101695760003560e01c80637f006420116100cb578063bffa7f0f1161007f578063dcec334811610059578063dcec334814610491578063e4a30116146104a6578063f4daa291146104c657600080fd5b8063bffa7f0f1461041e578063cf8e5cf014610451578063d1de856c1461047157600080fd5b806389c44cbb116100b057806389c44cbb1461038d5780639aaab648146103af578063a25ae557146103c257600080fd5b80637f00642014610357578063887862721461037757600080fd5b806354fd4d50116101225780636abcf563116101075780636abcf563146102f85780636b4d98dd1461030d57806370872aa51461034157600080fd5b806354fd4d50146102c157806369f16eec146102e357600080fd5b806330cc15271161015357806330cc1527146102475780634599c78814610278578063529933df1461028d57600080fd5b80622134cc1461016e57806311c27d12146101b5575b600080fd5b34801561017a57600080fd5b506101a27f000000000000000000000000000000000000000000000000000000000000000081565b6040519081526020015b60405180910390f35b3480156101c157600080fd5b506102226101d036600461146d565b600080547fffffffffffffffffffff0000000000000000000000000000000000000000ffff166201000073ffffffffffffffffffffffffffffffffffffffff9384168102919091179182905590041690565b60405173ffffffffffffffffffffffffffffffffffffffff90911681526020016101ac565b34801561025357600080fd5b5060005462010000900473ffffffffffffffffffffffffffffffffffffffff16610222565b34801561028457600080fd5b506101a26104fa565b34801561029957600080fd5b506101a27f000000000000000000000000000000000000000000000000000000000000000081565b3480156102cd57600080fd5b506102d661056d565b6040516101ac91906114da565b3480156102ef57600080fd5b506101a2610610565b34801561030457600080fd5b506003546101a2565b34801561031957600080fd5b506102227f000000000000000000000000000000000000000000000000000000000000000081565b34801561034d57600080fd5b506101a260015481565b34801561036357600080fd5b506101a261037236600461152b565b610622565b34801561038357600080fd5b506101a260025481565b34801561039957600080fd5b506103ad6103a836600461152b565b61083b565b005b6103ad6103bd366004611544565b610b11565b3480156103ce57600080fd5b506103e26103dd36600461152b565b610f78565b60408051825181526020808401516fffffffffffffffffffffffffffffffff9081169183019190915292820151909216908201526060016101ac565b34801561042a57600080fd5b506000546102229062010000900473ffffffffffffffffffffffffffffffffffffffff1681565b34801561045d57600080fd5b506103e261046c36600461152b565b61100c565b34801561047d57600080fd5b506101a261048c36600461152b565b611044565b34801561049d57600080fd5b506101a2611092565b3480156104b257600080fd5b506103ad6104c1366004611576565b6110c7565b3480156104d257600080fd5b506101a27f000000000000000000000000000000000000000000000000000000000000000081565b600354600090156105645760038054610515906001906115c7565b81548110610525576105256115de565b600091825260209091206002909102016001015470010000000000000000000000000000000090046fffffffffffffffffffffffffffffffff16919050565b6001545b905090565b60606105987f0000000000000000000000000000000000000000000000000000000000000000611330565b6105c17f0000000000000000000000000000000000000000000000000000000000000000611330565b6105ea7f0000000000000000000000000000000000000000000000000000000000000000611330565b6040516020016105fc9392919061160d565b604051602081830303815290604052905090565b600354600090610568906001906115c7565b600061062c6104fa565b8211156106e6576040517f08c379a000000000000000000000000000000000000000000000000000000000815260206004820152604860248201527f4c324f75747075744f7261636c653a2063616e6e6f7420676574206f7574707560448201527f7420666f72206120626c6f636b207468617420686173206e6f74206265656e2060648201527f70726f706f736564000000000000000000000000000000000000000000000000608482015260a4015b60405180910390fd5b60035461079b576040517f08c379a000000000000000000000000000000000000000000000000000000000815260206004820152604660248201527f4c324f75747075744f7261636c653a2063616e6e6f7420676574206f7574707560448201527f74206173206e6f206f7574707574732068617665206265656e2070726f706f7360648201527f6564207965740000000000000000000000000000000000000000000000000000608482015260a4016106dd565b6003546000905b8082101561083457600060026107b88385611683565b6107c291906116ca565b905084600382815481106107d8576107d86115de565b600091825260209091206002909102016001015470010000000000000000000000000000000090046fffffffffffffffffffffffffffffffff16101561082a57610823816001611683565b925061082e565b8091505b506107a2565b5092915050565b3373ffffffffffffffffffffffffffffffffffffffff7f00000000000000000000000000000000000000000000000000000000000000001614610900576040517f08c379a000000000000000000000000000000000000000000000000000000000815260206004820152603e60248201527f4c324f75747075744f7261636c653a206f6e6c7920746865206368616c6c656e60448201527f67657220616464726573732063616e2064656c657465206f757470757473000060648201526084016106dd565b60035481106109b7576040517f08c379a000000000000000000000000000000000000000000000000000000000815260206004820152604360248201527f4c324f75747075744f7261636c653a2063616e6e6f742064656c657465206f7560448201527f747075747320616674657220746865206c6174657374206f757470757420696e60648201527f6465780000000000000000000000000000000000000000000000000000000000608482015260a4016106dd565b7f0000000000000000000000000000000000000000000000000000000000000000600382815481106109eb576109eb6115de565b6000918252602090912060016002909202010154610a1b906fffffffffffffffffffffffffffffffff16426115c7565b10610ace576040517f08c379a000000000000000000000000000000000000000000000000000000000815260206004820152604660248201527f4c324f75747075744f7261636c653a2063616e6e6f742064656c657465206f7560448201527f74707574732074686174206861766520616c7265616479206265656e2066696e60648201527f616c697a65640000000000000000000000000000000000000000000000000000608482015260a4016106dd565b6000610ad960035490565b90508160035581817f4ee37ac2c786ec85e87592d3c5c8a1dd66f8496dda3f125d9ea8ca5f657629b660405160405180910390a35050565b60005462010000900473ffffffffffffffffffffffffffffffffffffffff163314610be4576040517f08c379a000000000000000000000000000000000000000000000000000000000815260206004820152604160248201527f4c324f75747075744f7261636c653a206f6e6c79207468652070726f706f736560448201527f7220616464726573732063616e2070726f706f7365206e6577206f757470757460648201527f7300000000000000000000000000000000000000000000000000000000000000608482015260a4016106dd565b610bec611092565b8314610ca0576040517f08c379a000000000000000000000000000000000000000000000000000000000815260206004820152604860248201527f4c324f75747075744f7261636c653a20626c6f636b206e756d626572206d757360448201527f7420626520657175616c20746f206e65787420657870656374656420626c6f6360648201527f6b206e756d626572000000000000000000000000000000000000000000000000608482015260a4016106dd565b42610caa84611044565b10610d37576040517f08c379a000000000000000000000000000000000000000000000000000000000815260206004820152603660248201527f4c324f75747075744f7261636c653a2063616e6e6f742070726f706f7365204c60448201527f32206f757470757420696e20746865206675747572650000000000000000000060648201526084016106dd565b83610dc4576040517f08c379a000000000000000000000000000000000000000000000000000000000815260206004820152603a60248201527f4c324f75747075744f7261636c653a204c32206f75747075742070726f706f7360448201527f616c2063616e6e6f7420626520746865207a65726f206861736800000000000060648201526084016106dd565b8115610e805781814014610e80576040517f08c379a000000000000000000000000000000000000000000000000000000000815260206004820152604960248201527f4c324f75747075744f7261636c653a20626c6f636b206861736820646f65732060448201527f6e6f74206d61746368207468652068617368206174207468652065787065637460648201527f6564206865696768740000000000000000000000000000000000000000000000608482015260a4016106dd565b82610e8a60035490565b857fa7aaf2512769da4e444e3de247be2564225c2e7a8f74cfe528e46e17d24868e242604051610ebc91815260200190565b60405180910390a45050604080516060810182529283526fffffffffffffffffffffffffffffffff4281166020850190815292811691840191825260038054600181018255600091909152935160029094027fc2575a0e9e593c00f959f8c92f12db2869c3395a3b0502d05e2516446f71f85b810194909455915190518216700100000000000000000000000000000000029116177fc2575a0e9e593c00f959f8c92f12db2869c3395a3b0502d05e2516446f71f85c90910155565b604080516060810182526000808252602082018190529181019190915260038281548110610fa857610fa86115de565b600091825260209182902060408051606081018252600290930290910180548352600101546fffffffffffffffffffffffffffffffff8082169484019490945270010000000000000000000000000000000090049092169181019190915292915050565b6040805160608101825260008082526020820181905291810191909152600361103483610622565b81548110610fa857610fa86115de565b60007f00000000000000000000000000000000000000000000000000000000000000006001548361107591906115c7565b61107f91906116de565b60025461108c9190611683565b92915050565b60007f00000000000000000000000000000000000000000000000000000000000000006110bd6104fa565b6105689190611683565b600054610100900460ff16158080156110e75750600054600160ff909116105b806111015750303b158015611101575060005460ff166001145b61118d576040517f08c379a000000000000000000000000000000000000000000000000000000000815260206004820152602e60248201527f496e697469616c697a61626c653a20636f6e747261637420697320616c72656160448201527f647920696e697469616c697a656400000000000000000000000000000000000060648201526084016106dd565b600080547fffffffffffffffffffffffffffffffffffffffffffffffffffffffffffffff0016600117905580156111eb57600080547fffffffffffffffffffffffffffffffffffffffffffffffffffffffffffff00ff166101001790555b428211156112a2576040517f08c379a0000000000000000000000000000000000000000000000000000000008152602060048201526044602482018190527f4c324f75747075744f7261636c653a207374617274696e67204c322074696d65908201527f7374616d70206d757374206265206c657373207468616e2063757272656e742060648201527f74696d6500000000000000000000000000000000000000000000000000000000608482015260a4016106dd565b60028290556001839055801561130f57600080547fffffffffffffffffffffffffffffffffffffffffffffffffffffffffffff00ff169055604051600181527f7f26b83ff96e1f2b6a682f133852f6798a09c465da95921460cefb38474024989060200160405180910390a15b505050565b73ffffffffffffffffffffffffffffffffffffffff163b151590565b60608160000361137357505060408051808201909152600181527f3000000000000000000000000000000000000000000000000000000000000000602082015290565b8160005b811561139d57806113878161171b565b91506113969050600a836116ca565b9150611377565b60008167ffffffffffffffff8111156113b8576113b8611753565b6040519080825280601f01601f1916602001820160405280156113e2576020820181803683370190505b5090505b8415611465576113f76001836115c7565b9150611404600a86611782565b61140f906030611683565b60f81b818381518110611424576114246115de565b60200101907effffffffffffffffffffffffffffffffffffffffffffffffffffffffffffff1916908160001a90535061145e600a866116ca565b94506113e6565b949350505050565b60006020828403121561147f57600080fd5b813573ffffffffffffffffffffffffffffffffffffffff811681146114a357600080fd5b9392505050565b60005b838110156114c55781810151838201526020016114ad565b838111156114d4576000848401525b50505050565b60208152600082518060208401526114f98160408501602087016114aa565b601f017fffffffffffffffffffffffffffffffffffffffffffffffffffffffffffffffe0169190910160400192915050565b60006020828403121561153d57600080fd5b5035919050565b6000806000806080858703121561155a57600080fd5b5050823594602084013594506040840135936060013592509050565b6000806040838503121561158957600080fd5b50508035926020909101359150565b7f4e487b7100000000000000000000000000000000000000000000000000000000600052601160045260246000fd5b6000828210156115d9576115d9611598565b500390565b7f4e487b7100000000000000000000000000000000000000000000000000000000600052603260045260246000fd5b6000845161161f8184602089016114aa565b80830190507f2e00000000000000000000000000000000000000000000000000000000000000808252855161165b816001850160208a016114aa565b600192019182015283516116768160028401602088016114aa565b0160020195945050505050565b6000821982111561169657611696611598565b500190565b7f4e487b7100000000000000000000000000000000000000000000000000000000600052601260045260246000fd5b6000826116d9576116d961169b565b500490565b6000817fffffffffffffffffffffffffffffffffffffffffffffffffffffffffffffffff048311821515161561171657611716611598565b500290565b60007fffffffffffffffffffffffffffffffffffffffffffffffffffffffffffffffff820361174c5761174c611598565b5060010190565b7f4e487b7100000000000000000000000000000000000000000000000000000000600052604160045260246000fd5b6000826117915761179161169b565b50069056fea164736f6c634300080f000a",
  "devdoc": {
    "version": 1,
    "kind": "dev",
    "methods": {
      "computeL2Timestamp(uint256)": {
        "params": {
          "_l2BlockNumber": "The L2 block number of the target block."
        },
        "returns": {
          "_0": "L2 timestamp of the given block."
        }
      },
      "constructor": {
        "params": {
          "_challenger": "The address of the challenger.",
          "_l2BlockTime": "The time per L2 block, in seconds.",
          "_proposer": "The address of the proposer.",
          "_startingBlockNumber": "The number of the first L2 block.",
          "_startingTimestamp": "The timestamp of the first L2 block.",
          "_submissionInterval": "Interval in blocks at which checkpoints must be submitted."
        }
      },
      "deleteL2Outputs(uint256)": {
        "params": {
          "_l2OutputIndex": "Index of the first L2 output to be deleted. All outputs after this                       output will also be deleted."
        }
      },
      "getL2Output(uint256)": {
        "params": {
          "_l2OutputIndex": "Index of the output to return."
        },
        "returns": {
          "_0": "The output at the given index."
        }
      },
      "getL2OutputAfter(uint256)": {
        "params": {
          "_l2BlockNumber": "L2 block number to find a checkpoint for."
        },
        "returns": {
          "_0": "First checkpoint that commits to the given L2 block number."
        }
      },
      "getL2OutputIndexAfter(uint256)": {
        "params": {
          "_l2BlockNumber": "L2 block number to find a checkpoint for."
        },
        "returns": {
          "_0": "Index of the first checkpoint that commits to the given L2 block number."
        }
      },
      "initialize(uint256,uint256)": {
        "params": {
          "_startingBlockNumber": "Block number for the first recoded L2 block.",
          "_startingTimestamp": "Timestamp for the first recoded L2 block."
        }
      },
      "latestBlockNumber()": {
        "returns": {
          "_0": "Latest submitted L2 block number."
        }
      },
      "latestOutputIndex()": {
        "returns": {
          "_0": "The number of outputs that have been proposed."
        }
      },
      "nextBlockNumber()": {
        "returns": {
          "_0": "Next L2 block number."
        }
      },
      "nextOutputIndex()": {
        "returns": {
          "_0": "The index of the next output to be proposed."
        }
      },
      "proposeL2Output(bytes32,uint256,bytes32,uint256)": {
        "params": {
          "_l1BlockHash": "A block hash which must be included in the current chain.",
          "_l1BlockNumber": "The block number with the specified block hash.",
          "_l2BlockNumber": "The L2 block number that resulted in _outputRoot.",
          "_outputRoot": "The L2 output of the checkpoint block."
        }
      },
      "version()": {
        "returns": {
          "_0": "Semver contract version as a string."
        }
      }
    },
    "events": {
      "OutputProposed(bytes32,uint256,uint256,uint256)": {
        "params": {
          "l1Timestamp": "The L1 timestamp when proposed.",
          "l2BlockNumber": "The L2 block number of the output root.",
          "l2OutputIndex": "The index of the output in the l2Outputs array.",
          "outputRoot": "The output root."
        }
      },
      "OutputsDeleted(uint256,uint256)": {
        "params": {
          "newNextOutputIndex": "Next L2 output index after the deletion.",
          "prevNextOutputIndex": "Next L2 output index before the deletion."
        }
      }
    }
  },
  "userdoc": {
    "version": 1,
    "kind": "user",
    "methods": {
      "CHALLENGER()": {
        "notice": "The address of the challenger. Can be updated via upgrade."
      },
      "FINALIZATION_PERIOD_SECONDS()": {
        "notice": "Minimum time (in seconds) that must elapse before a withdrawal can be finalized."
      },
      "L2_BLOCK_TIME()": {
        "notice": "The time between L2 blocks in seconds. Once set, this value MUST NOT be modified."
      },
      "PROPOSER()": {
        "notice": "The address of the proposer. Can be updated via upgrade."
      },
      "SUBMISSION_INTERVAL()": {
        "notice": "The interval in L2 blocks at which checkpoints must be submitted. Although this is         immutable, it can safely be modified by upgrading the implementation contract."
      },
      "computeL2Timestamp(uint256)": {
        "notice": "Returns the L2 timestamp corresponding to a given L2 block number."
      },
      "deleteL2Outputs(uint256)": {
        "notice": "Deletes all output proposals after and including the proposal that corresponds to         the given output index. Only the challenger address can delete outputs."
      },
      "getL2Output(uint256)": {
        "notice": "Returns an output by index. Exists because Solidity's array access will return a         tuple instead of a struct."
      },
      "getL2OutputAfter(uint256)": {
        "notice": "Returns the L2 output proposal that checkpoints a given L2 block number. Uses a         binary search to find the first output greater than or equal to the given block."
      },
      "getL2OutputIndexAfter(uint256)": {
        "notice": "Returns the index of the L2 output that checkpoints a given L2 block number. Uses a         binary search to find the first output greater than or equal to the given block."
      },
      "initialize(uint256,uint256)": {
        "notice": "Initializer."
      },
      "latestBlockNumber()": {
        "notice": "Returns the block number of the latest submitted L2 output proposal. If no proposals         been submitted yet then this function will return the starting block number."
      },
      "latestOutputIndex()": {
        "notice": "Returns the number of outputs that have been proposed. Will revert if no outputs         have been proposed yet."
      },
      "nextBlockNumber()": {
        "notice": "Computes the block number of the next L2 block that needs to be checkpointed."
      },
      "nextOutputIndex()": {
        "notice": "Returns the index of the next output to be proposed."
      },
      "proposeL2Output(bytes32,uint256,bytes32,uint256)": {
        "notice": "Accepts an outputRoot and the timestamp of the corresponding L2 block. The timestamp         must be equal to the current value returned by `nextTimestamp()` in order to be         accepted. This function may only be called by the Proposer."
      },
      "startingBlockNumber()": {
        "notice": "The number of the first L2 block recorded in this contract."
      },
      "startingTimestamp()": {
        "notice": "The timestamp of the first L2 block recorded in this contract."
      },
      "version()": {
        "notice": "Returns the full semver contract version."
      }
    },
    "events": {
      "OutputProposed(bytes32,uint256,uint256,uint256)": {
        "notice": "Emitted when an output is proposed."
      },
      "OutputsDeleted(uint256,uint256)": {
        "notice": "Emitted when outputs are deleted."
      }
    },
    "notice": "The L2OutputOracle contains an array of L2 state outputs, where each output is a         commitment to the state of the L2 chain. Other contracts like the OptimismPortal use         these outputs to verify information about the state of L2."
  },
  "storageLayout": {
    "storage": [
      {
        "astId": 42608,
        "contract": "contracts/L1/L2OutputOracle.sol:L2OutputOracle",
        "label": "_initialized",
        "offset": 0,
        "slot": "0",
        "type": "t_uint8"
      },
      {
        "astId": 42611,
        "contract": "contracts/L1/L2OutputOracle.sol:L2OutputOracle",
        "label": "_initializing",
        "offset": 1,
        "slot": "0",
        "type": "t_bool"
      },
      {
        "astId": 797,
        "contract": "contracts/L1/L2OutputOracle.sol:L2OutputOracle",
        "label": "PROPOSER",
        "offset": 2,
        "slot": "0",
        "type": "t_address"
      },
      {
        "astId": 803,
        "contract": "contracts/L1/L2OutputOracle.sol:L2OutputOracle",
        "label": "startingBlockNumber",
        "offset": 0,
        "slot": "1",
        "type": "t_uint256"
      },
      {
        "astId": 806,
        "contract": "contracts/L1/L2OutputOracle.sol:L2OutputOracle",
        "label": "startingTimestamp",
        "offset": 0,
        "slot": "2",
        "type": "t_uint256"
      },
      {
        "astId": 811,
        "contract": "contracts/L1/L2OutputOracle.sol:L2OutputOracle",
        "label": "l2Outputs",
        "offset": 0,
        "slot": "3",
        "type": "t_array(t_struct(OutputProposal)7118_storage)dyn_storage"
      }
    ],
    "types": {
      "t_address": {
        "encoding": "inplace",
        "label": "address",
        "numberOfBytes": "20"
      },
      "t_array(t_struct(OutputProposal)7118_storage)dyn_storage": {
        "encoding": "dynamic_array",
        "label": "struct Types.OutputProposal[]",
        "numberOfBytes": "32",
        "base": "t_struct(OutputProposal)7118_storage"
      },
      "t_bool": {
        "encoding": "inplace",
        "label": "bool",
        "numberOfBytes": "1"
      },
      "t_bytes32": {
        "encoding": "inplace",
        "label": "bytes32",
        "numberOfBytes": "32"
      },
      "t_struct(OutputProposal)7118_storage": {
        "encoding": "inplace",
        "label": "struct Types.OutputProposal",
        "numberOfBytes": "64",
        "members": [
          {
            "astId": 7113,
            "contract": "contracts/L1/L2OutputOracle.sol:L2OutputOracle",
            "label": "outputRoot",
            "offset": 0,
            "slot": "0",
            "type": "t_bytes32"
          },
          {
            "astId": 7115,
            "contract": "contracts/L1/L2OutputOracle.sol:L2OutputOracle",
            "label": "timestamp",
            "offset": 0,
            "slot": "1",
            "type": "t_uint128"
          },
          {
            "astId": 7117,
            "contract": "contracts/L1/L2OutputOracle.sol:L2OutputOracle",
            "label": "l2BlockNumber",
            "offset": 16,
            "slot": "1",
            "type": "t_uint128"
          }
        ]
      },
      "t_uint128": {
        "encoding": "inplace",
        "label": "uint128",
        "numberOfBytes": "16"
      },
      "t_uint256": {
        "encoding": "inplace",
        "label": "uint256",
        "numberOfBytes": "32"
      },
      "t_uint8": {
        "encoding": "inplace",
        "label": "uint8",
        "numberOfBytes": "1"
      }
    }
  }
}